{
  "_format": "hh-sol-artifact-1",
  "contractName": "EthSwap",
  "sourceName": "contracts/EthSwap.sol",
  "abi": [
    {
      "inputs": [
        {
          "internalType": "address",
          "name": "_exchangeSmartContract",
          "type": "address"
        }
      ],
      "stateMutability": "nonpayable",
      "type": "constructor"
    },
    {
      "anonymous": false,
      "inputs": [
        {
          "indexed": false,
          "internalType": "address",
          "name": "account",
          "type": "address"
        },
        {
          "indexed": false,
          "internalType": "address",
          "name": "fromToken",
          "type": "address"
        },
        {
          "indexed": false,
          "internalType": "uint256",
          "name": "amount",
          "type": "uint256"
        }
      ],
      "name": "TokensDeposited",
      "type": "event"
    },
    {
      "anonymous": false,
      "inputs": [
        {
          "indexed": false,
          "internalType": "address",
          "name": "account",
          "type": "address"
        },
        {
          "indexed": false,
          "internalType": "address",
          "name": "toToken",
          "type": "address"
        },
        {
          "indexed": false,
          "internalType": "uint256",
          "name": "amount",
          "type": "uint256"
        }
      ],
      "name": "TokensWithdrawn",
      "type": "event"
    },
    {
      "inputs": [],
      "name": "exchangeSmartContract",
      "outputs": [
        {
          "internalType": "address",
          "name": "",
          "type": "address"
        }
      ],
      "stateMutability": "view",
      "type": "function"
    },
    {
      "inputs": [],
      "name": "fromToken",
      "outputs": [
        {
          "internalType": "address",
          "name": "",
          "type": "address"
        }
      ],
      "stateMutability": "view",
      "type": "function"
    },
    {
      "inputs": [],
      "name": "name",
      "outputs": [
        {
          "internalType": "string",
          "name": "",
          "type": "string"
        }
      ],
      "stateMutability": "view",
      "type": "function"
    },
    {
      "inputs": [
        {
          "internalType": "uint256",
          "name": "_amount",
          "type": "uint256"
        }
      ],
      "name": "provide",
      "outputs": [],
      "stateMutability": "payable",
      "type": "function"
    },
    {
      "inputs": [
        {
          "internalType": "address",
          "name": "_fromToken",
          "type": "address"
        },
        {
          "internalType": "address",
          "name": "_toToken",
          "type": "address"
        }
      ],
      "name": "setSwapPair",
      "outputs": [],
      "stateMutability": "nonpayable",
      "type": "function"
    },
    {
      "inputs": [],
      "name": "toToken",
      "outputs": [
        {
          "internalType": "address",
          "name": "",
          "type": "address"
        }
      ],
      "stateMutability": "view",
      "type": "function"
    },
    {
      "inputs": [
        {
          "internalType": "uint256",
          "name": "_amount",
          "type": "uint256"
        }
      ],
      "name": "withdraw",
      "outputs": [],
      "stateMutability": "nonpayable",
      "type": "function"
    }
  ],
  "bytecode": "0x60806040526040518060400160405280601881526020017f4574685377617020496e7374616e742045786368616e676500000000000000008152506000908051906020019062000051929190620000cd565b503480156200005f57600080fd5b5060405162000b6738038062000b67833981810160405281019062000085919062000194565b80600160006101000a81548173ffffffffffffffffffffffffffffffffffffffff021916908373ffffffffffffffffffffffffffffffffffffffff1602179055505062000273565b828054620000db90620001f4565b90600052602060002090601f016020900481019282620000ff57600085556200014b565b82601f106200011a57805160ff19168380011785556200014b565b828001600101855582156200014b579182015b828111156200014a5782518255916020019190600101906200012d565b5b5090506200015a91906200015e565b5090565b5b80821115620001795760008160009055506001016200015f565b5090565b6000815190506200018e8162000259565b92915050565b600060208284031215620001a757600080fd5b6000620001b7848285016200017d565b91505092915050565b6000620001cd82620001d4565b9050919050565b600073ffffffffffffffffffffffffffffffffffffffff82169050919050565b600060028204905060018216806200020d57607f821691505b602082108114156200022457620002236200022a565b5b50919050565b7f4e487b7100000000000000000000000000000000000000000000000000000000600052602260045260246000fd5b6200026481620001c0565b81146200027057600080fd5b50565b6108e480620002836000396000f3fe6080604052600436106100705760003560e01c806332a468571161004e57806332a46857146100e55780633c93057514610110578063bd7dd8141461013b578063dc2c50e51461016657610070565b806306fdde03146100755780632e1a7d4d146100a05780632e2ebe06146100c9575b600080fd5b34801561008157600080fd5b5061008a61018f565b604051610097919061073e565b60405180910390f35b3480156100ac57600080fd5b506100c760048036038101906100c29190610643565b61021d565b005b6100e360048036038101906100de9190610643565b610380565b005b3480156100f157600080fd5b506100fa610492565b60405161010791906106ec565b60405180910390f35b34801561011c57600080fd5b506101256104b8565b60405161013291906106ec565b60405180910390f35b34801561014757600080fd5b506101506104de565b60405161015d91906106ec565b60405180910390f35b34801561017257600080fd5b5061018d600480360381019061018891906105de565b610504565b005b6000805461019c906107f7565b80601f01602080910402602001604051908101604052809291908181526020018280546101c8906107f7565b80156102155780601f106101ea57610100808354040283529160200191610215565b820191906000526020600020905b8154815290600101906020018083116101f857829003601f168201915b505050505081565b80600360009054906101000a900473ffffffffffffffffffffffffffffffffffffffff1673ffffffffffffffffffffffffffffffffffffffff166370a08231306040518263ffffffff1660e01b815260040161027991906106ec565b60206040518083038186803b15801561029157600080fd5b505afa1580156102a5573d6000803e3d6000fd5b505050506040513d601f19601f820116820180604052508101906102c9919061066c565b10156102d457600080fd5b80600460003373ffffffffffffffffffffffffffffffffffffffff1673ffffffffffffffffffffffffffffffffffffffff16815260200190815260200160002054111561032057600080fd5b7f6337ed398c0e8467698c581374fdce4db14922df487b5a39483079f5f59b60a433600360009054906101000a900473ffffffffffffffffffffffffffffffffffffffff168360405161037593929190610707565b60405180910390a150565b600260009054906101000a900473ffffffffffffffffffffffffffffffffffffffff1673ffffffffffffffffffffffffffffffffffffffff166323b872dd3330846040518463ffffffff1660e01b81526004016103df93929190610707565b602060405180830381600087803b1580156103f957600080fd5b505af115801561040d573d6000803e3d6000fd5b505050506040513d601f19601f82011682018060405250810190610431919061061a565b507fcbc4a4091b012bb1329c38bbbb15455f5cac5aa3673da0a7f38cd61a4f49551733600260009054906101000a900473ffffffffffffffffffffffffffffffffffffffff168360405161048793929190610707565b60405180910390a150565b600260009054906101000a900473ffffffffffffffffffffffffffffffffffffffff1681565b600360009054906101000a900473ffffffffffffffffffffffffffffffffffffffff1681565b600160009054906101000a900473ffffffffffffffffffffffffffffffffffffffff1681565b81600260006101000a81548173ffffffffffffffffffffffffffffffffffffffff021916908373ffffffffffffffffffffffffffffffffffffffff16021790555080600360006101000a81548173ffffffffffffffffffffffffffffffffffffffff021916908373ffffffffffffffffffffffffffffffffffffffff1602179055505050565b60008135905061059981610869565b92915050565b6000815190506105ae81610880565b92915050565b6000813590506105c381610897565b92915050565b6000815190506105d881610897565b92915050565b600080604083850312156105f157600080fd5b60006105ff8582860161058a565b92505060206106108582860161058a565b9150509250929050565b60006020828403121561062c57600080fd5b600061063a8482850161059f565b91505092915050565b60006020828403121561065557600080fd5b6000610663848285016105b4565b91505092915050565b60006020828403121561067e57600080fd5b600061068c848285016105c9565b91505092915050565b61069e8161077c565b82525050565b60006106af82610760565b6106b9818561076b565b93506106c98185602086016107c4565b6106d281610858565b840191505092915050565b6106e6816107ba565b82525050565b60006020820190506107016000830184610695565b92915050565b600060608201905061071c6000830186610695565b6107296020830185610695565b61073660408301846106dd565b949350505050565b6000602082019050818103600083015261075881846106a4565b905092915050565b600081519050919050565b600082825260208201905092915050565b60006107878261079a565b9050919050565b60008115159050919050565b600073ffffffffffffffffffffffffffffffffffffffff82169050919050565b6000819050919050565b60005b838110156107e25780820151818401526020810190506107c7565b838111156107f1576000848401525b50505050565b6000600282049050600182168061080f57607f821691505b6020821081141561082357610822610829565b5b50919050565b7f4e487b7100000000000000000000000000000000000000000000000000000000600052602260045260246000fd5b6000601f19601f8301169050919050565b6108728161077c565b811461087d57600080fd5b50565b6108898161078e565b811461089457600080fd5b50565b6108a0816107ba565b81146108ab57600080fd5b5056fea26469706673582212209fd57ee49d9cf19e28f6d4590253564b31cb811c0e237d432012e9ec2f12247264736f6c63430008040033",
  "linkReferences": {},
  "deployedLinkReferences": {}
}